{
  "contractName": "Borrower",
  "abi": [
    {
      "inputs": [
        {
          "internalType": "address",
          "name": "_charity_org",
          "type": "address"
        }
      ],
      "stateMutability": "nonpayable",
      "type": "constructor"
    },
    {
      "inputs": [
        {
          "internalType": "string",
          "name": "_fname",
          "type": "string"
        },
        {
          "internalType": "string",
          "name": "_lname",
          "type": "string"
        },
        {
          "internalType": "string",
          "name": "_photo",
          "type": "string"
        },
        {
          "internalType": "address",
          "name": "_account",
          "type": "address"
        }
      ],
      "name": "store_borrower",
      "outputs": [],
      "stateMutability": "nonpayable",
      "type": "function"
    },
    {
      "inputs": [
        {
          "internalType": "address",
          "name": "_borrower",
          "type": "address"
        },
        {
          "internalType": "address",
          "name": "_donator",
          "type": "address"
        }
      ],
      "name": "store_donators",
      "outputs": [],
      "stateMutability": "nonpayable",
      "type": "function"
    },
    {
      "inputs": [],
      "name": "get_all_borrowers",
      "outputs": [
        {
          "components": [
            {
              "internalType": "string",
              "name": "fname",
              "type": "string"
            },
            {
              "internalType": "string",
              "name": "lname",
              "type": "string"
            },
            {
              "internalType": "string",
              "name": "photo",
              "type": "string"
            },
            {
              "internalType": "address",
              "name": "account",
              "type": "address"
            }
          ],
          "internalType": "struct Borrower.borrower_atrr[]",
          "name": "borrower_atr",
          "type": "tuple[]"
        }
      ],
      "stateMutability": "view",
      "type": "function"
    },
    {
      "inputs": [
        {
          "internalType": "address",
          "name": "_borrower",
          "type": "address"
        }
      ],
      "name": "list_of_donators_by_borrower_addr",
      "outputs": [
        {
          "internalType": "address[]",
          "name": "",
          "type": "address[]"
        }
      ],
      "stateMutability": "view",
      "type": "function"
    },
    {
      "inputs": [
        {
          "internalType": "address",
          "name": "account",
          "type": "address"
        }
      ],
      "name": "view_borrower_by_addr",
      "outputs": [
        {
          "components": [
            {
              "internalType": "string",
              "name": "fname",
              "type": "string"
            },
            {
              "internalType": "string",
              "name": "lname",
              "type": "string"
            },
            {
              "internalType": "string",
              "name": "photo",
              "type": "string"
            },
            {
              "internalType": "address",
              "name": "account",
              "type": "address"
            }
          ],
          "internalType": "struct Borrower.borrower_atrr",
          "name": "",
          "type": "tuple"
        }
      ],
      "stateMutability": "view",
      "type": "function"
    },
    {
      "inputs": [],
      "name": "get_borrowers_address",
      "outputs": [
        {
          "internalType": "address[]",
          "name": "",
          "type": "address[]"
        }
      ],
      "stateMutability": "view",
      "type": "function"
    },
    {
      "inputs": [
        {
          "internalType": "address",
          "name": "account",
          "type": "address"
        }
      ],
      "name": "total_donations_you_received",
      "outputs": [
        {
          "internalType": "uint256",
          "name": "",
          "type": "uint256"
        }
      ],
      "stateMutability": "view",
      "type": "function"
    },
    {
      "inputs": [
        {
          "internalType": "address",
          "name": "_account",
          "type": "address"
        }
      ],
      "name": "is_borrower",
      "outputs": [
        {
          "internalType": "bool",
          "name": "",
          "type": "bool"
        }
      ],
      "stateMutability": "view",
      "type": "function"
    }
  ],
  "bytecode": "0x60806040523480156200001157600080fd5b5060405162001a1f38038062001a1f8339818101604052810190620000379190620000f8565b80600260006101000a81548173ffffffffffffffffffffffffffffffffffffffff021916908373ffffffffffffffffffffffffffffffffffffffff160217905550600260009054906101000a900473ffffffffffffffffffffffffffffffffffffffff166000806101000a81548173ffffffffffffffffffffffffffffffffffffffff021916908373ffffffffffffffffffffffffffffffffffffffff1602179055505062000172565b600081519050620000f28162000158565b92915050565b6000602082840312156200010b57600080fd5b60006200011b84828501620000e1565b91505092915050565b6000620001318262000138565b9050919050565b600073ffffffffffffffffffffffffffffffffffffffff82169050919050565b620001638162000124565b81146200016f57600080fd5b50565b61189d80620001826000396000f3fe608060405234801561001057600080fd5b50600436106100885760003560e01c80637c2a5f031161005b5780637c2a5f03146101295780637f8b5d3314610159578063856ab18914610175578063b1da5a9d146101a557610088565b806302c8af821461008d5780631adb589c146100ab578063205b9db7146100db57806329a966531461010b575b600080fd5b6100956101c1565b6040516100a29190611559565b60405180910390f35b6100c560048036038101906100c09190611121565b610345565b6040516100d291906115f8565b60405180910390f35b6100f560048036038101906100f09190611121565b6106d8565b6040516101029190611559565b60405180910390f35b6101136107fa565b604051610120919061157b565b60405180910390f35b610143600480360381019061013e9190611121565b610b47565b604051610150919061159d565b60405180910390f35b610173600480360381019061016e919061114a565b610c23565b005b61018f600480360381019061018a9190611121565b610cc7565b60405161019c919061161a565b60405180910390f35b6101bf60048036038101906101ba9190611186565b610dcf565b005b6060600060018054905067ffffffffffffffff81111561020a577f4e487b7100000000000000000000000000000000000000000000000000000000600052604160045260246000fd5b6040519080825280602002602001820160405280156102385781602001602082028036833780820191505090505b50905060005b60018054905081101561033d5760018181548110610285577f4e487b7100000000000000000000000000000000000000000000000000000000600052603260045260246000fd5b906000526020600020906004020160030160009054906101000a900473ffffffffffffffffffffffffffffffffffffffff168282815181106102f0577f4e487b7100000000000000000000000000000000000000000000000000000000600052603260045260246000fd5b602002602001019073ffffffffffffffffffffffffffffffffffffffff16908173ffffffffffffffffffffffffffffffffffffffff1681525050808061033590611781565b91505061023e565b508091505090565b61034d610fcc565b6001151561035a83610b47565b15151461039c576040517f08c379a0000000000000000000000000000000000000000000000000000000008152600401610393906115d8565b60405180910390fd5b60005b6001805490508110156106c5578273ffffffffffffffffffffffffffffffffffffffff16600182815481106103fd577f4e487b7100000000000000000000000000000000000000000000000000000000600052603260045260246000fd5b906000526020600020906004020160030160009054906101000a900473ffffffffffffffffffffffffffffffffffffffff1673ffffffffffffffffffffffffffffffffffffffff1614156106b25760018181548110610485577f4e487b7100000000000000000000000000000000000000000000000000000000600052603260045260246000fd5b90600052602060002090600402016040518060800160405290816000820180546104ae9061174f565b80601f01602080910402602001604051908101604052809291908181526020018280546104da9061174f565b80156105275780601f106104fc57610100808354040283529160200191610527565b820191906000526020600020905b81548152906001019060200180831161050a57829003601f168201915b505050505081526020016001820180546105409061174f565b80601f016020809104026020016040519081016040528092919081815260200182805461056c9061174f565b80156105b95780601f1061058e576101008083540402835291602001916105b9565b820191906000526020600020905b81548152906001019060200180831161059c57829003601f168201915b505050505081526020016002820180546105d29061174f565b80601f01602080910402602001604051908101604052809291908181526020018280546105fe9061174f565b801561064b5780601f106106205761010080835404028352916020019161064b565b820191906000526020600020905b81548152906001019060200180831161062e57829003601f168201915b505050505081526020016003820160009054906101000a900473ffffffffffffffffffffffffffffffffffffffff1673ffffffffffffffffffffffffffffffffffffffff1673ffffffffffffffffffffffffffffffffffffffff16815250509150506106d3565b80806106bd90611781565b91505061039f565b506106ce610fcc565b809150505b919050565b60606000829050600115156106ec82610b47565b15151461072e576040517f08c379a0000000000000000000000000000000000000000000000000000000008152600401610725906115d8565b60405180910390fd5b600360008473ffffffffffffffffffffffffffffffffffffffff1673ffffffffffffffffffffffffffffffffffffffff1681526020019081526020016000208054806020026020016040519081016040528092919081815260200182805480156107ed57602002820191906000526020600020905b8160009054906101000a900473ffffffffffffffffffffffffffffffffffffffff1673ffffffffffffffffffffffffffffffffffffffff16815260200190600101908083116107a3575b5050505050915050919050565b606060018054905067ffffffffffffffff811115610841577f4e487b7100000000000000000000000000000000000000000000000000000000600052604160045260246000fd5b60405190808252806020026020018201604052801561087a57816020015b610867610fcc565b81526020019060019003908161085f5790505b50905060005b600180549050811015610b4357600181815481106108c7577f4e487b7100000000000000000000000000000000000000000000000000000000600052603260045260246000fd5b90600052602060002090600402016040518060800160405290816000820180546108f09061174f565b80601f016020809104026020016040519081016040528092919081815260200182805461091c9061174f565b80156109695780601f1061093e57610100808354040283529160200191610969565b820191906000526020600020905b81548152906001019060200180831161094c57829003601f168201915b505050505081526020016001820180546109829061174f565b80601f01602080910402602001604051908101604052809291908181526020018280546109ae9061174f565b80156109fb5780601f106109d0576101008083540402835291602001916109fb565b820191906000526020600020905b8154815290600101906020018083116109de57829003601f168201915b50505050508152602001600282018054610a149061174f565b80601f0160208091040260200160405190810160405280929190818152602001828054610a409061174f565b8015610a8d5780601f10610a6257610100808354040283529160200191610a8d565b820191906000526020600020905b815481529060010190602001808311610a7057829003601f168201915b505050505081526020016003820160009054906101000a900473ffffffffffffffffffffffffffffffffffffffff1673ffffffffffffffffffffffffffffffffffffffff1673ffffffffffffffffffffffffffffffffffffffff1681525050828281518110610b25577f4e487b7100000000000000000000000000000000000000000000000000000000600052603260045260246000fd5b60200260200101819052508080610b3b90611781565b915050610880565b5090565b600080600090505b600180549050811015610c18578273ffffffffffffffffffffffffffffffffffffffff1660018281548110610bad577f4e487b7100000000000000000000000000000000000000000000000000000000600052603260045260246000fd5b906000526020600020906004020160030160009054906101000a900473ffffffffffffffffffffffffffffffffffffffff1673ffffffffffffffffffffffffffffffffffffffff161415610c05576001915050610c1e565b8080610c1090611781565b915050610b4f565b50600090505b919050565b600360008373ffffffffffffffffffffffffffffffffffffffff1673ffffffffffffffffffffffffffffffffffffffff168152602001908152602001600020819080600181540180825580915050600190039060005260206000200160009091909190916101000a81548173ffffffffffffffffffffffffffffffffffffffff021916908373ffffffffffffffffffffffffffffffffffffffff1602179055505050565b600060011515610cd683610b47565b151514610d18576040517f08c379a0000000000000000000000000000000000000000000000000000000008152600401610d0f906115b8565b60405180910390fd5b60008060009054906101000a900473ffffffffffffffffffffffffffffffffffffffff1673ffffffffffffffffffffffffffffffffffffffff16636f2d773a846040518263ffffffff1660e01b8152600401610d74919061153e565b60206040518083038186803b158015610d8c57600080fd5b505afa158015610da0573d6000803e3d6000fd5b505050506040513d601f19601f82011682018060405250810190610dc4919061123f565b905080915050919050565b610dd7610fcc565b87878080601f016020809104026020016040519081016040528093929190818152602001838380828437600081840152601f19601f82011690508083019250505050505050816000018190525085858080601f016020809104026020016040519081016040528093929190818152602001838380828437600081840152601f19601f82011690508083019250505050505050816020018190525083838080601f016020809104026020016040519081016040528093929190818152602001838380828437600081840152601f19601f82011690508083019250505050505050816040018190525081816060019073ffffffffffffffffffffffffffffffffffffffff16908173ffffffffffffffffffffffffffffffffffffffff168152505060018190806001815401808255809150506001900390600052602060002090600402016000909190919091506000820151816000019080519060200190610f3e92919061100a565b506020820151816001019080519060200190610f5b92919061100a565b506040820151816002019080519060200190610f7892919061100a565b5060608201518160030160006101000a81548173ffffffffffffffffffffffffffffffffffffffff021916908373ffffffffffffffffffffffffffffffffffffffff16021790555050505050505050505050565b6040518060800160405280606081526020016060815260200160608152602001600073ffffffffffffffffffffffffffffffffffffffff1681525090565b8280546110169061174f565b90600052602060002090601f016020900481019282611038576000855561107f565b82601f1061105157805160ff191683800117855561107f565b8280016001018555821561107f579182015b8281111561107e578251825591602001919060010190611063565b5b50905061108c9190611090565b5090565b5b808211156110a9576000816000905550600101611091565b5090565b6000813590506110bc81611839565b92915050565b60008083601f8401126110d457600080fd5b8235905067ffffffffffffffff8111156110ed57600080fd5b60208301915083600182028301111561110557600080fd5b9250929050565b60008151905061111b81611850565b92915050565b60006020828403121561113357600080fd5b6000611141848285016110ad565b91505092915050565b6000806040838503121561115d57600080fd5b600061116b858286016110ad565b925050602061117c858286016110ad565b9150509250929050565b60008060008060008060006080888a0312156111a157600080fd5b600088013567ffffffffffffffff8111156111bb57600080fd5b6111c78a828b016110c2565b9750975050602088013567ffffffffffffffff8111156111e657600080fd5b6111f28a828b016110c2565b9550955050604088013567ffffffffffffffff81111561121157600080fd5b61121d8a828b016110c2565b935093505060606112308a828b016110ad565b91505092959891949750929550565b60006020828403121561125157600080fd5b600061125f8482850161110c565b91505092915050565b60006112748383611294565b60208301905092915050565b600061128c838361144d565b905092915050565b61129d816116d4565b82525050565b6112ac816116d4565b82525050565b60006112bd82611655565b6112c78185611690565b93506112d283611635565b8060005b838110156113035781516112ea8882611268565b97506112f583611676565b9250506001810190506112d6565b5085935050505092915050565b600061131b82611660565b61132581856116a1565b93508360208202850161133785611645565b8060005b8581101561137357848403895281516113548582611280565b945061135f83611683565b925060208a0199505060018101905061133b565b50829750879550505050505092915050565b61138e816116e6565b82525050565b600061139f8261166b565b6113a981856116b2565b93506113b981856020860161171c565b6113c281611828565b840191505092915050565b60006113da601f836116c3565b91507f796f75277265206e6f7420726567697374657220617320626f72726f776572006000830152602082019050919050565b600061141a601c836116c3565b91507f796f75277265206e6f7420616c6c6f77656420746f20646f20736f2e000000006000830152602082019050919050565b6000608083016000830151848203600086015261146a8282611394565b915050602083015184820360208601526114848282611394565b9150506040830151848203604086015261149e8282611394565b91505060608301516114b36060860182611294565b508091505092915050565b600060808301600083015184820360008601526114db8282611394565b915050602083015184820360208601526114f58282611394565b9150506040830151848203604086015261150f8282611394565b91505060608301516115246060860182611294565b508091505092915050565b61153881611712565b82525050565b600060208201905061155360008301846112a3565b92915050565b6000602082019050818103600083015261157381846112b2565b905092915050565b600060208201905081810360008301526115958184611310565b905092915050565b60006020820190506115b26000830184611385565b92915050565b600060208201905081810360008301526115d1816113cd565b9050919050565b600060208201905081810360008301526115f18161140d565b9050919050565b6000602082019050818103600083015261161281846114be565b905092915050565b600060208201905061162f600083018461152f565b92915050565b6000819050602082019050919050565b6000819050602082019050919050565b600081519050919050565b600081519050919050565b600081519050919050565b6000602082019050919050565b6000602082019050919050565b600082825260208201905092915050565b600082825260208201905092915050565b600082825260208201905092915050565b600082825260208201905092915050565b60006116df826116f2565b9050919050565b60008115159050919050565b600073ffffffffffffffffffffffffffffffffffffffff82169050919050565b6000819050919050565b60005b8381101561173a57808201518184015260208101905061171f565b83811115611749576000848401525b50505050565b6000600282049050600182168061176757607f821691505b6020821081141561177b5761177a6117f9565b5b50919050565b600061178c82611712565b91507fffffffffffffffffffffffffffffffffffffffffffffffffffffffffffffffff8214156117bf576117be6117ca565b5b600182019050919050565b7f4e487b7100000000000000000000000000000000000000000000000000000000600052601160045260246000fd5b7f4e487b7100000000000000000000000000000000000000000000000000000000600052602260045260246000fd5b6000601f19601f8301169050919050565b611842816116d4565b811461184d57600080fd5b50565b61185981611712565b811461186457600080fd5b5056fea2646970667358221220125313974fbcef0a901dc907824537ca8cb0187881179c8eaf738af14985506364736f6c63430008000033",
  "immutableReferences": {},
  "source": "// SPDX-License-Identifier: MIT\r\n// solium-disable linebreak-style\r\npragma solidity >= 0.4.22 < 0.9.0;\r\n\r\nimport \"./CharityOrg.sol\";\r\n\r\ncontract Borrower {\r\n    struct borrower_atrr {\r\n        string fname;\r\n        string lname;\r\n        string photo;\r\n        address account;\r\n    }\r\n    CharityOrg orgObject;\r\n    borrower_atrr [] borrowers;\r\n    address charity_org_contract_addr;\r\n    mapping(address => address[]) donaters_list;\r\n    constructor(address _charity_org) {\r\n        charity_org_contract_addr = _charity_org;\r\n        orgObject = CharityOrg(charity_org_contract_addr);\r\n\r\n    }\r\n\r\n    function store_borrower(string calldata _fname, string calldata _lname, string calldata _photo, address _account) external {\r\n        borrower_atrr memory temp;\r\n        temp.fname = _fname;\r\n        temp.lname = _lname;\r\n        temp.photo = _photo;\r\n        temp.account = _account;\r\n        borrowers.push(temp);\r\n    }\r\n\r\n    function store_donators(address _borrower, address _donator) public {\r\n        donaters_list[_borrower].push(_donator);\r\n    }\r\n\r\n    function get_all_borrowers() public view returns(borrower_atrr [] memory borrower_atr) {\r\n        borrower_atr = new borrower_atrr[](borrowers.length);\r\n        for(uint i=0; i<borrowers.length; i++) {\r\n            borrower_atr[i] = borrowers[i];\r\n        }\r\n    }\r\n\r\n    /** your donators */\r\n    function list_of_donators_by_borrower_addr(address _borrower) public view returns(address[] memory) {\r\n        address account = _borrower;\r\n        require(is_borrower(account) == true, \"you're not allowed to do so.\");\r\n        return donaters_list[_borrower];\r\n    }\r\n\r\n    /* view borrowers by address */\r\n    function view_borrower_by_addr(address account) public view returns(borrower_atrr memory) {\r\n        require(is_borrower(account) == true, \"you're not allowed to do so.\");\r\n        for(uint i=0; i<borrowers.length; i++) {\r\n            if(borrowers[i].account == account) {\r\n                return borrowers[i];\r\n            }\r\n        }\r\n        borrower_atrr memory temp;\r\n        return temp;\r\n    }\r\n\r\n    function get_borrowers_address() public view returns(address [] memory) {\r\n        address [] memory temp_arr = new address[](borrowers.length);\r\n        for(uint i=0; i<borrowers.length; i++) {\r\n            temp_arr[i] = borrowers[i].account;\r\n        }\r\n        return temp_arr;\r\n    }\r\n\r\n      /** your donations */\r\n    function total_donations_you_received(address account) public view returns(uint) {\r\n        require(is_borrower(account) == true, \"you're not register as borrower\");\r\n        uint amount = orgObject.get_total_donations_by_borrower_addr(account);\r\n        return amount;\r\n    }\r\n\r\n    function is_borrower(address _account) public view returns(bool) {\r\n        for(uint i=0; i<borrowers.length; i++) {\r\n            if(borrowers[i].account == _account) {\r\n                return true;\r\n            }\r\n        }\r\n        return false;\r\n    }\r\n\r\n}",
  "sourcePath": "E:\\3 - Al Nafi\\Blockchain\\Labs\\side_projects\\charity_dapp\\contracts\\Borrower.sol",
  "compiler": {
    "name": "solc",
    "version": "0.8.0+commit.c7dfd78e.Emscripten.clang"
  },
  "schemaVersion": "3.4.3",
  "updatedAt": "2021-12-21T15:07:38.385Z",
  "devdoc": {
    "kind": "dev",
    "methods": {},
    "version": 1
  },
  "userdoc": {
    "kind": "user",
    "methods": {
      "list_of_donators_by_borrower_addr(address)": {
        "notice": "your donators "
      },
      "total_donations_you_received(address)": {
        "notice": "your donations "
      }
    },
    "version": 1
  }
}