{
  "contractName": "CharityOrg",
  "abi": [
    {
      "inputs": [],
      "stateMutability": "nonpayable",
      "type": "constructor"
    },
    {
      "inputs": [
        {
          "internalType": "string",
          "name": "_fname",
          "type": "string"
        },
        {
          "internalType": "string",
          "name": "_lname",
          "type": "string"
        },
        {
          "internalType": "string",
          "name": "_photo",
          "type": "string"
        },
        {
          "internalType": "address",
          "name": "_account",
          "type": "address"
        }
      ],
      "name": "register_donator",
      "outputs": [],
      "stateMutability": "nonpayable",
      "type": "function"
    },
    {
      "inputs": [
        {
          "internalType": "string",
          "name": "_fname",
          "type": "string"
        },
        {
          "internalType": "string",
          "name": "_lname",
          "type": "string"
        },
        {
          "internalType": "string",
          "name": "_photo",
          "type": "string"
        },
        {
          "internalType": "address",
          "name": "_account",
          "type": "address"
        }
      ],
      "name": "register_borrower",
      "outputs": [],
      "stateMutability": "nonpayable",
      "type": "function"
    },
    {
      "inputs": [
        {
          "internalType": "uint256",
          "name": "_amount",
          "type": "uint256"
        },
        {
          "internalType": "address",
          "name": "_account",
          "type": "address"
        }
      ],
      "name": "receive_donations",
      "outputs": [],
      "stateMutability": "nonpayable",
      "type": "function"
    },
    {
      "inputs": [
        {
          "internalType": "address",
          "name": "_donator",
          "type": "address"
        },
        {
          "internalType": "address",
          "name": "_borrower",
          "type": "address"
        },
        {
          "internalType": "uint256",
          "name": "_amount",
          "type": "uint256"
        }
      ],
      "name": "give_donations_borrowers",
      "outputs": [
        {
          "internalType": "string",
          "name": "",
          "type": "string"
        }
      ],
      "stateMutability": "nonpayable",
      "type": "function"
    },
    {
      "inputs": [
        {
          "internalType": "address",
          "name": "_borrower",
          "type": "address"
        }
      ],
      "name": "get_total_donations_by_borrower_addr",
      "outputs": [
        {
          "internalType": "uint256",
          "name": "",
          "type": "uint256"
        }
      ],
      "stateMutability": "view",
      "type": "function",
      "constant": true
    },
    {
      "inputs": [
        {
          "internalType": "address",
          "name": "_account",
          "type": "address"
        }
      ],
      "name": "view_donations_by_addr",
      "outputs": [
        {
          "internalType": "uint256",
          "name": "",
          "type": "uint256"
        }
      ],
      "stateMutability": "view",
      "type": "function",
      "constant": true
    },
    {
      "inputs": [],
      "name": "get_all_donators_addresses",
      "outputs": [
        {
          "internalType": "address[]",
          "name": "",
          "type": "address[]"
        }
      ],
      "stateMutability": "view",
      "type": "function",
      "constant": true
    },
    {
      "inputs": [],
      "name": "get_all_borrowers_adddresses",
      "outputs": [
        {
          "internalType": "address[]",
          "name": "",
          "type": "address[]"
        }
      ],
      "stateMutability": "view",
      "type": "function",
      "constant": true
    },
    {
      "inputs": [],
      "name": "get_donator_address",
      "outputs": [
        {
          "internalType": "address",
          "name": "",
          "type": "address"
        }
      ],
      "stateMutability": "view",
      "type": "function",
      "constant": true
    },
    {
      "inputs": [],
      "name": "get_borrower_address",
      "outputs": [
        {
          "internalType": "address",
          "name": "",
          "type": "address"
        }
      ],
      "stateMutability": "view",
      "type": "function",
      "constant": true
    }
  ],
  "bytecode": "0x60806040523480156200001157600080fd5b5033600260006101000a81548173ffffffffffffffffffffffffffffffffffffffff021916908373ffffffffffffffffffffffffffffffffffffffff16021790555030604051620000629062000230565b6200006e91906200025d565b604051809103906000f0801580156200008b573d6000803e3d6000fd5b506000806101000a81548173ffffffffffffffffffffffffffffffffffffffff021916908373ffffffffffffffffffffffffffffffffffffffff160217905550600260009054906101000a900473ffffffffffffffffffffffffffffffffffffffff16604051620000fc906200023e565b6200010891906200025d565b604051809103906000f08015801562000125573d6000803e3d6000fd5b50600160006101000a81548173ffffffffffffffffffffffffffffffffffffffff021916908373ffffffffffffffffffffffffffffffffffffffff16021790555060008054906101000a900473ffffffffffffffffffffffffffffffffffffffff16600360006101000a81548173ffffffffffffffffffffffffffffffffffffffff021916908373ffffffffffffffffffffffffffffffffffffffff160217905550600160009054906101000a900473ffffffffffffffffffffffffffffffffffffffff16600460006101000a81548173ffffffffffffffffffffffffffffffffffffffff021916908373ffffffffffffffffffffffffffffffffffffffff160217905550620002ae565b611d48806200168b83390190565b611a1f80620033d383390190565b62000257816200027a565b82525050565b60006020820190506200027460008301846200024c565b92915050565b600062000287826200028e565b9050919050565b600073ffffffffffffffffffffffffffffffffffffffff82169050919050565b6113cd80620002be6000396000f3fe608060405234801561001057600080fd5b506004361061009e5760003560e01c8063a450806011610066578063a450806014610147578063d458bec614610165578063d92d496514610183578063fc17f85c146101b3578063fd3af0b8146101e35761009e565b806335eeb2a7146100a3578063604a35ff146100bf5780636f2d773a146100dd5780638760c10d1461010d57806392541f7814610129575b600080fd5b6100bd60048036038101906100b89190610cd5565b6101ff565b005b6100c7610331565b6040516100d49190610fe5565b60405180910390f35b6100f760048036038101906100f29190610bf3565b61035b565b60405161010491906110ed565b60405180910390f35b61012760048036038101906101229190610d8e565b6103a4565b005b61013161043f565b60405161013e9190611029565b60405180910390f35b61014f6104eb565b60405161015c9190610fe5565b60405180910390f35b61016d610515565b60405161017a9190611029565b60405180910390f35b61019d60048036038101906101989190610bf3565b6105bf565b6040516101aa91906110ed565b60405180910390f35b6101cd60048036038101906101c89190610c1c565b610608565b6040516101da91906110ab565b60405180910390f35b6101fd60048036038101906101f89190610cd5565b61096e565b005b3373ffffffffffffffffffffffffffffffffffffffff16600260009054906101000a900473ffffffffffffffffffffffffffffffffffffffff1673ffffffffffffffffffffffffffffffffffffffff161461028f576040517f08c379a0000000000000000000000000000000000000000000000000000000008152600401610286906110cd565b60405180910390fd5b600160009054906101000a900473ffffffffffffffffffffffffffffffffffffffff1673ffffffffffffffffffffffffffffffffffffffff1663b1da5a9d888888888888886040518863ffffffff1660e01b81526004016102f6979695949392919061104b565b600060405180830381600087803b15801561031057600080fd5b505af1158015610324573d6000803e3d6000fd5b5050505050505050505050565b6000600360009054906101000a900473ffffffffffffffffffffffffffffffffffffffff16905090565b6000600660008373ffffffffffffffffffffffffffffffffffffffff1673ffffffffffffffffffffffffffffffffffffffff168152602001908152602001600020549050919050565b6000600560008373ffffffffffffffffffffffffffffffffffffffff1673ffffffffffffffffffffffffffffffffffffffff16815260200190815260200160002054905082816103f491906111c5565b905080600560008473ffffffffffffffffffffffffffffffffffffffff1673ffffffffffffffffffffffffffffffffffffffff16815260200190815260200160002081905550505050565b6060600160009054906101000a900473ffffffffffffffffffffffffffffffffffffffff1673ffffffffffffffffffffffffffffffffffffffff166302c8af826040518163ffffffff1660e01b815260040160006040518083038186803b1580156104a957600080fd5b505afa1580156104bd573d6000803e3d6000fd5b505050506040513d6000823e3d601f19601f820116820180604052508101906104e69190610c6b565b905090565b6000600460009054906101000a900473ffffffffffffffffffffffffffffffffffffffff16905090565b606060008054906101000a900473ffffffffffffffffffffffffffffffffffffffff1673ffffffffffffffffffffffffffffffffffffffff1663eb2307266040518163ffffffff1660e01b815260040160006040518083038186803b15801561057d57600080fd5b505afa158015610591573d6000803e3d6000fd5b505050506040513d6000823e3d601f19601f820116820180604052508101906105ba9190610c6b565b905090565b6000600560008373ffffffffffffffffffffffffffffffffffffffff1673ffffffffffffffffffffffffffffffffffffffff168152602001908152602001600020549050919050565b60603373ffffffffffffffffffffffffffffffffffffffff16600260009054906101000a900473ffffffffffffffffffffffffffffffffffffffff1673ffffffffffffffffffffffffffffffffffffffff161461069a576040517f08c379a0000000000000000000000000000000000000000000000000000000008152600401610691906110cd565b60405180910390fd5b6000600560008673ffffffffffffffffffffffffffffffffffffffff1673ffffffffffffffffffffffffffffffffffffffff1681526020019081526020016000205490508281106109455782600560008773ffffffffffffffffffffffffffffffffffffffff1673ffffffffffffffffffffffffffffffffffffffff16815260200190815260200160002054610730919061121b565b600560008773ffffffffffffffffffffffffffffffffffffffff1673ffffffffffffffffffffffffffffffffffffffff1681526020019081526020016000208190555082600660008673ffffffffffffffffffffffffffffffffffffffff1673ffffffffffffffffffffffffffffffffffffffff168152602001908152602001600020546107be91906111c5565b600660008673ffffffffffffffffffffffffffffffffffffffff1673ffffffffffffffffffffffffffffffffffffffff16815260200190815260200160002081905550600160009054906101000a900473ffffffffffffffffffffffffffffffffffffffff1673ffffffffffffffffffffffffffffffffffffffff16637f8b5d3385876040518363ffffffff1660e01b815260040161085e929190611000565b600060405180830381600087803b15801561087857600080fd5b505af115801561088c573d6000803e3d6000fd5b5050505060008054906101000a900473ffffffffffffffffffffffffffffffffffffffff1673ffffffffffffffffffffffffffffffffffffffff16636a658b5e86866040518363ffffffff1660e01b81526004016108eb929190611000565b600060405180830381600087803b15801561090557600080fd5b505af1158015610919573d6000803e3d6000fd5b505050508260405160200161092e9190610fbf565b604051602081830303815290604052915050610967565b60405160200161095490610faa565b6040516020818303038152906040529150505b9392505050565b3373ffffffffffffffffffffffffffffffffffffffff16600260009054906101000a900473ffffffffffffffffffffffffffffffffffffffff1673ffffffffffffffffffffffffffffffffffffffff16146109fe576040517f08c379a00000000000000000000000000000000000000000000000000000000081526004016109f5906110cd565b60405180910390fd5b60008054906101000a900473ffffffffffffffffffffffffffffffffffffffff1673ffffffffffffffffffffffffffffffffffffffff16636f8d2942888888888888886040518863ffffffff1660e01b8152600401610a63979695949392919061104b565b602060405180830381600087803b158015610a7d57600080fd5b505af1158015610a91573d6000803e3d6000fd5b505050506040513d601f19601f82011682018060405250810190610ab59190610cac565b5050505050505050565b6000610ad2610acd84611139565b611108565b90508083825260208201905082856020860282011115610af157600080fd5b60005b85811015610b215781610b078882610b40565b845260208401935060208301925050600181019050610af4565b5050509392505050565b600081359050610b3a81611352565b92915050565b600081519050610b4f81611352565b92915050565b600082601f830112610b6657600080fd5b8151610b76848260208601610abf565b91505092915050565b600081519050610b8e81611369565b92915050565b60008083601f840112610ba657600080fd5b8235905067ffffffffffffffff811115610bbf57600080fd5b602083019150836001820283011115610bd757600080fd5b9250929050565b600081359050610bed81611380565b92915050565b600060208284031215610c0557600080fd5b6000610c1384828501610b2b565b91505092915050565b600080600060608486031215610c3157600080fd5b6000610c3f86828701610b2b565b9350506020610c5086828701610b2b565b9250506040610c6186828701610bde565b9150509250925092565b600060208284031215610c7d57600080fd5b600082015167ffffffffffffffff811115610c9757600080fd5b610ca384828501610b55565b91505092915050565b600060208284031215610cbe57600080fd5b6000610ccc84828501610b7f565b91505092915050565b60008060008060008060006080888a031215610cf057600080fd5b600088013567ffffffffffffffff811115610d0a57600080fd5b610d168a828b01610b94565b9750975050602088013567ffffffffffffffff811115610d3557600080fd5b610d418a828b01610b94565b9550955050604088013567ffffffffffffffff811115610d6057600080fd5b610d6c8a828b01610b94565b93509350506060610d7f8a828b01610b2b565b91505092959891949750929550565b60008060408385031215610da157600080fd5b6000610daf85828601610bde565b9250506020610dc085828601610b2b565b9150509250929050565b6000610dd68383610de2565b60208301905092915050565b610deb8161124f565b82525050565b610dfa8161124f565b82525050565b6000610e0b82611175565b610e158185611198565b9350610e2083611165565b8060005b83811015610e51578151610e388882610dca565b9750610e438361118b565b925050600181019050610e24565b5085935050505092915050565b6000610e6a83856111a9565b9350610e77838584611297565b610e8083611341565b840190509392505050565b6000610e9682611180565b610ea081856111a9565b9350610eb08185602086016112a6565b610eb981611341565b840191505092915050565b6000610ed16017836111a9565b91507f796f75277265206e6f742063686172697479206f72672e0000000000000000006000830152602082019050919050565b6000610f11600b836111ba565b91507f205472616e7366657265640000000000000000000000000000000000000000006000830152600b82019050919050565b6000610f516013836111ba565b91507f4e6f7468696e67205472616e7366657265642e000000000000000000000000006000830152601382019050919050565b610f8d8161128d565b82525050565b610fa4610f9f8261128d565b6112d9565b82525050565b6000610fb582610f44565b9150819050919050565b6000610fcb8284610f93565b602082019150610fda82610f04565b915081905092915050565b6000602082019050610ffa6000830184610df1565b92915050565b60006040820190506110156000830185610df1565b6110226020830184610df1565b9392505050565b600060208201905081810360008301526110438184610e00565b905092915050565b6000608082019050818103600083015261106681898b610e5e565b9050818103602083015261107b818789610e5e565b90508181036040830152611090818587610e5e565b905061109f6060830184610df1565b98975050505050505050565b600060208201905081810360008301526110c58184610e8b565b905092915050565b600060208201905081810360008301526110e681610ec4565b9050919050565b60006020820190506111026000830184610f84565b92915050565b6000604051905081810181811067ffffffffffffffff8211171561112f5761112e611312565b5b8060405250919050565b600067ffffffffffffffff82111561115457611153611312565b5b602082029050602081019050919050565b6000819050602082019050919050565b600081519050919050565b600081519050919050565b6000602082019050919050565b600082825260208201905092915050565b600082825260208201905092915050565b600081905092915050565b60006111d08261128d565b91506111db8361128d565b9250827fffffffffffffffffffffffffffffffffffffffffffffffffffffffffffffffff038211156112105761120f6112e3565b5b828201905092915050565b60006112268261128d565b91506112318361128d565b925082821015611244576112436112e3565b5b828203905092915050565b600061125a8261126d565b9050919050565b60008115159050919050565b600073ffffffffffffffffffffffffffffffffffffffff82169050919050565b6000819050919050565b82818337600083830152505050565b60005b838110156112c45780820151818401526020810190506112a9565b838111156112d3576000848401525b50505050565b6000819050919050565b7f4e487b7100000000000000000000000000000000000000000000000000000000600052601160045260246000fd5b7f4e487b7100000000000000000000000000000000000000000000000000000000600052604160045260246000fd5b6000601f19601f8301169050919050565b61135b8161124f565b811461136657600080fd5b50565b61137281611261565b811461137d57600080fd5b50565b6113898161128d565b811461139457600080fd5b5056fea264697066735822122094c7595c30c1c455ec3b274ed452b20513cd9549e1b97c00064d214fb6057e9164736f6c6343000800003360806040523480156200001157600080fd5b5060405162001d4838038062001d488339818101604052810190620000379190620000d7565b80600160006101000a81548173ffffffffffffffffffffffffffffffffffffffff021916908373ffffffffffffffffffffffffffffffffffffffff16021790555080600360006101000a81548173ffffffffffffffffffffffffffffffffffffffff021916908373ffffffffffffffffffffffffffffffffffffffff1602179055505062000151565b600081519050620000d18162000137565b92915050565b600060208284031215620000ea57600080fd5b6000620000fa84828501620000c0565b91505092915050565b6000620001108262000117565b9050919050565b600073ffffffffffffffffffffffffffffffffffffffff82169050919050565b620001428162000103565b81146200014e57600080fd5b50565b611be780620001616000396000f3fe6080604052600436106100865760003560e01c80636f8d2942116100595780636f8d29421461014c57806389f685c71461018957806392859af5146101c6578063b0f040f9146101f1578063eb2307261461022e57610086565b8063204309881461008b57806334a0de50146100a957806339bcd466146100e65780636a658b5e14610123575b600080fd5b610093610259565b6040516100a0919061187e565b60405180910390f35b3480156100b557600080fd5b506100d060048036038101906100cb9190611336565b61038e565b6040516100dd919061187e565b60405180910390f35b3480156100f257600080fd5b5061010d60048036038101906101089190611336565b61046a565b60405161011a919061193b565b60405180910390f35b34801561012f57600080fd5b5061014a6004803603810190610145919061135f565b610578565b005b34801561015857600080fd5b50610173600480360381019061016e919061139b565b61061c565b604051610180919061187e565b60405180910390f35b34801561019557600080fd5b506101b060048036038101906101ab9190611336565b6108b1565b6040516101bd919061183a565b60405180910390f35b3480156101d257600080fd5b506101db6109cd565b6040516101e8919061185c565b60405180910390f35b3480156101fd57600080fd5b5061021860048036038101906102139190611336565b610d1a565b6040516102259190611919565b60405180910390f35b34801561023a57600080fd5b5061024361105e565b604051610250919061183a565b60405180910390f35b600080341161029d576040517f08c379a0000000000000000000000000000000000000000000000000000000008152600401610294906118d9565b60405180910390fd5b60003490506000339050600115156102b48261038e565b1515146102f6576040517f08c379a00000000000000000000000000000000000000000000000000000000081526004016102ed906118f9565b60405180910390fd5b600360009054906101000a900473ffffffffffffffffffffffffffffffffffffffff1673ffffffffffffffffffffffffffffffffffffffff16638760c10d83836040518363ffffffff1660e01b8152600401610353929190611956565b600060405180830381600087803b15801561036d57600080fd5b505af1158015610381573d6000803e3d6000fd5b5050505060019250505090565b600080600090505b60008054905081101561045f578273ffffffffffffffffffffffffffffffffffffffff16600082815481106103f4577f4e487b7100000000000000000000000000000000000000000000000000000000600052603260045260246000fd5b906000526020600020906004020160030160009054906101000a900473ffffffffffffffffffffffffffffffffffffffff1673ffffffffffffffffffffffffffffffffffffffff16141561044c576001915050610465565b808061045790611acb565b915050610396565b50600090505b919050565b6000808290506001151561047d8261038e565b1515146104bf576040517f08c379a00000000000000000000000000000000000000000000000000000000081526004016104b6906118b9565b60405180910390fd5b6000600360009054906101000a900473ffffffffffffffffffffffffffffffffffffffff1673ffffffffffffffffffffffffffffffffffffffff1663d92d4965836040518263ffffffff1660e01b815260040161051c919061181f565b60206040518083038186803b15801561053457600080fd5b505afa158015610548573d6000803e3d6000fd5b505050506040513d601f19601f8201168201806040525081019061056c9190611454565b90508092505050919050565b600260008373ffffffffffffffffffffffffffffffffffffffff1673ffffffffffffffffffffffffffffffffffffffff168152602001908152602001600020819080600181540180825580915050600190039060005260206000200160009091909190916101000a81548173ffffffffffffffffffffffffffffffffffffffff021916908373ffffffffffffffffffffffffffffffffffffffff1602179055505050565b60003373ffffffffffffffffffffffffffffffffffffffff16600160009054906101000a900473ffffffffffffffffffffffffffffffffffffffff1673ffffffffffffffffffffffffffffffffffffffff16146106ae576040517f08c379a00000000000000000000000000000000000000000000000000000000081526004016106a590611899565b60405180910390fd5b6106b66111e1565b88888080601f016020809104026020016040519081016040528093929190818152602001838380828437600081840152601f19601f82011690508083019250505050505050816000018190525086868080601f016020809104026020016040519081016040528093929190818152602001838380828437600081840152601f19601f82011690508083019250505050505050816020018190525084848080601f016020809104026020016040519081016040528093929190818152602001838380828437600081840152601f19601f82011690508083019250505050505050816040018190525082816060019073ffffffffffffffffffffffffffffffffffffffff16908173ffffffffffffffffffffffffffffffffffffffff16815250506000819080600181540180825580915050600190039060005260206000209060040201600090919091909150600082015181600001908051906020019061081d92919061121f565b50602082015181600101908051906020019061083a92919061121f565b50604082015181600201908051906020019061085792919061121f565b5060608201518160030160006101000a81548173ffffffffffffffffffffffffffffffffffffffff021916908373ffffffffffffffffffffffffffffffffffffffff16021790555050506001915050979650505050505050565b6060600115156108c08361038e565b151514610902576040517f08c379a00000000000000000000000000000000000000000000000000000000081526004016108f9906118b9565b60405180910390fd5b600260008373ffffffffffffffffffffffffffffffffffffffff1673ffffffffffffffffffffffffffffffffffffffff1681526020019081526020016000208054806020026020016040519081016040528092919081815260200182805480156109c157602002820191906000526020600020905b8160009054906101000a900473ffffffffffffffffffffffffffffffffffffffff1673ffffffffffffffffffffffffffffffffffffffff1681526020019060010190808311610977575b50505050509050919050565b606060008054905067ffffffffffffffff811115610a14577f4e487b7100000000000000000000000000000000000000000000000000000000600052604160045260246000fd5b604051908082528060200260200182016040528015610a4d57816020015b610a3a6111e1565b815260200190600190039081610a325790505b50905060005b600080549050811015610d165760008181548110610a9a577f4e487b7100000000000000000000000000000000000000000000000000000000600052603260045260246000fd5b9060005260206000209060040201604051806080016040529081600082018054610ac390611a99565b80601f0160208091040260200160405190810160405280929190818152602001828054610aef90611a99565b8015610b3c5780601f10610b1157610100808354040283529160200191610b3c565b820191906000526020600020905b815481529060010190602001808311610b1f57829003601f168201915b50505050508152602001600182018054610b5590611a99565b80601f0160208091040260200160405190810160405280929190818152602001828054610b8190611a99565b8015610bce5780601f10610ba357610100808354040283529160200191610bce565b820191906000526020600020905b815481529060010190602001808311610bb157829003601f168201915b50505050508152602001600282018054610be790611a99565b80601f0160208091040260200160405190810160405280929190818152602001828054610c1390611a99565b8015610c605780601f10610c3557610100808354040283529160200191610c60565b820191906000526020600020905b815481529060010190602001808311610c4357829003601f168201915b505050505081526020016003820160009054906101000a900473ffffffffffffffffffffffffffffffffffffffff1673ffffffffffffffffffffffffffffffffffffffff1673ffffffffffffffffffffffffffffffffffffffff1681525050828281518110610cf8577f4e487b7100000000000000000000000000000000000000000000000000000000600052603260045260246000fd5b60200260200101819052508080610d0e90611acb565b915050610a53565b5090565b610d226111e1565b60005b60008054905081101561104b578273ffffffffffffffffffffffffffffffffffffffff1660008281548110610d83577f4e487b7100000000000000000000000000000000000000000000000000000000600052603260045260246000fd5b906000526020600020906004020160030160009054906101000a900473ffffffffffffffffffffffffffffffffffffffff1673ffffffffffffffffffffffffffffffffffffffff1614156110385760008181548110610e0b577f4e487b7100000000000000000000000000000000000000000000000000000000600052603260045260246000fd5b9060005260206000209060040201604051806080016040529081600082018054610e3490611a99565b80601f0160208091040260200160405190810160405280929190818152602001828054610e6090611a99565b8015610ead5780601f10610e8257610100808354040283529160200191610ead565b820191906000526020600020905b815481529060010190602001808311610e9057829003601f168201915b50505050508152602001600182018054610ec690611a99565b80601f0160208091040260200160405190810160405280929190818152602001828054610ef290611a99565b8015610f3f5780601f10610f1457610100808354040283529160200191610f3f565b820191906000526020600020905b815481529060010190602001808311610f2257829003601f168201915b50505050508152602001600282018054610f5890611a99565b80601f0160208091040260200160405190810160405280929190818152602001828054610f8490611a99565b8015610fd15780601f10610fa657610100808354040283529160200191610fd1565b820191906000526020600020905b815481529060010190602001808311610fb457829003601f168201915b505050505081526020016003820160009054906101000a900473ffffffffffffffffffffffffffffffffffffffff1673ffffffffffffffffffffffffffffffffffffffff1673ffffffffffffffffffffffffffffffffffffffff1681525050915050611059565b808061104390611acb565b915050610d25565b506110546111e1565b809150505b919050565b60606000808054905067ffffffffffffffff8111156110a6577f4e487b7100000000000000000000000000000000000000000000000000000000600052604160045260246000fd5b6040519080825280602002602001820160405280156110d45781602001602082028036833780820191505090505b50905060005b6000805490508110156111d95760008181548110611121577f4e487b7100000000000000000000000000000000000000000000000000000000600052603260045260246000fd5b906000526020600020906004020160030160009054906101000a900473ffffffffffffffffffffffffffffffffffffffff1682828151811061118c577f4e487b7100000000000000000000000000000000000000000000000000000000600052603260045260246000fd5b602002602001019073ffffffffffffffffffffffffffffffffffffffff16908173ffffffffffffffffffffffffffffffffffffffff168152505080806111d190611acb565b9150506110da565b508091505090565b6040518060800160405280606081526020016060815260200160608152602001600073ffffffffffffffffffffffffffffffffffffffff1681525090565b82805461122b90611a99565b90600052602060002090601f01602090048101928261124d5760008555611294565b82601f1061126657805160ff1916838001178555611294565b82800160010185558215611294579182015b82811115611293578251825591602001919060010190611278565b5b5090506112a191906112a5565b5090565b5b808211156112be5760008160009055506001016112a6565b5090565b6000813590506112d181611b83565b92915050565b60008083601f8401126112e957600080fd5b8235905067ffffffffffffffff81111561130257600080fd5b60208301915083600182028301111561131a57600080fd5b9250929050565b60008151905061133081611b9a565b92915050565b60006020828403121561134857600080fd5b6000611356848285016112c2565b91505092915050565b6000806040838503121561137257600080fd5b6000611380858286016112c2565b9250506020611391858286016112c2565b9150509250929050565b60008060008060008060006080888a0312156113b657600080fd5b600088013567ffffffffffffffff8111156113d057600080fd5b6113dc8a828b016112d7565b9750975050602088013567ffffffffffffffff8111156113fb57600080fd5b6114078a828b016112d7565b9550955050604088013567ffffffffffffffff81111561142657600080fd5b6114328a828b016112d7565b935093505060606114458a828b016112c2565b91505092959891949750929550565b60006020828403121561146657600080fd5b600061147484828501611321565b91505092915050565b600061148983836114a9565b60208301905092915050565b60006114a1838361172e565b905092915050565b6114b281611a1e565b82525050565b6114c181611a1e565b82525050565b60006114d28261199f565b6114dc81856119da565b93506114e78361197f565b8060005b838110156115185781516114ff888261147d565b975061150a836119c0565b9250506001810190506114eb565b5085935050505092915050565b6000611530826119aa565b61153a81856119eb565b93508360208202850161154c8561198f565b8060005b8581101561158857848403895281516115698582611495565b9450611574836119cd565b925060208a01995050600181019050611550565b50829750879550505050505092915050565b6115a381611a30565b82525050565b60006115b4826119b5565b6115be81856119fc565b93506115ce818560208601611a66565b6115d781611b72565b840191505092915050565b60006115ef602983611a0d565b91507f796f75277265206e6f7420616c6c6f77656420746f2063616c6c20746869732060008301527f66756e6374696f6e2e00000000000000000000000000000000000000000000006020830152604082019050919050565b6000611655601283611a0d565b91507f796f75277265206e6f7420616c6c6f77656400000000000000000000000000006000830152602082019050919050565b6000611695601a83611a0d565b91507f796f752063616e277420646f6e617465203020616d6f756e742e0000000000006000830152602082019050919050565b60006116d5602483611a0d565b91507f796f75277265206e6f7420616c6c6f77656420746f206769766520646f6e617460008301527f696f6e73000000000000000000000000000000000000000000000000000000006020830152604082019050919050565b6000608083016000830151848203600086015261174b82826115a9565b9150506020830151848203602086015261176582826115a9565b9150506040830151848203604086015261177f82826115a9565b915050606083015161179460608601826114a9565b508091505092915050565b600060808301600083015184820360008601526117bc82826115a9565b915050602083015184820360208601526117d682826115a9565b915050604083015184820360408601526117f082826115a9565b915050606083015161180560608601826114a9565b508091505092915050565b61181981611a5c565b82525050565b600060208201905061183460008301846114b8565b92915050565b6000602082019050818103600083015261185481846114c7565b905092915050565b600060208201905081810360008301526118768184611525565b905092915050565b6000602082019050611893600083018461159a565b92915050565b600060208201905081810360008301526118b2816115e2565b9050919050565b600060208201905081810360008301526118d281611648565b9050919050565b600060208201905081810360008301526118f281611688565b9050919050565b60006020820190508181036000830152611912816116c8565b9050919050565b60006020820190508181036000830152611933818461179f565b905092915050565b60006020820190506119506000830184611810565b92915050565b600060408201905061196b6000830185611810565b61197860208301846114b8565b9392505050565b6000819050602082019050919050565b6000819050602082019050919050565b600081519050919050565b600081519050919050565b600081519050919050565b6000602082019050919050565b6000602082019050919050565b600082825260208201905092915050565b600082825260208201905092915050565b600082825260208201905092915050565b600082825260208201905092915050565b6000611a2982611a3c565b9050919050565b60008115159050919050565b600073ffffffffffffffffffffffffffffffffffffffff82169050919050565b6000819050919050565b60005b83811015611a84578082015181840152602081019050611a69565b83811115611a93576000848401525b50505050565b60006002820490506001821680611ab157607f821691505b60208210811415611ac557611ac4611b43565b5b50919050565b6000611ad682611a5c565b91507fffffffffffffffffffffffffffffffffffffffffffffffffffffffffffffffff821415611b0957611b08611b14565b5b600182019050919050565b7f4e487b7100000000000000000000000000000000000000000000000000000000600052601160045260246000fd5b7f4e487b7100000000000000000000000000000000000000000000000000000000600052602260045260246000fd5b6000601f19601f8301169050919050565b611b8c81611a1e565b8114611b9757600080fd5b50565b611ba381611a5c565b8114611bae57600080fd5b5056fea26469706673582212205bcd98b5a7409dee012a013f34af1b445e27c22ecaa02cbfe2de3087ff2d9ba964736f6c6343000800003360806040523480156200001157600080fd5b5060405162001a1f38038062001a1f8339818101604052810190620000379190620000f8565b80600260006101000a81548173ffffffffffffffffffffffffffffffffffffffff021916908373ffffffffffffffffffffffffffffffffffffffff160217905550600260009054906101000a900473ffffffffffffffffffffffffffffffffffffffff166000806101000a81548173ffffffffffffffffffffffffffffffffffffffff021916908373ffffffffffffffffffffffffffffffffffffffff1602179055505062000172565b600081519050620000f28162000158565b92915050565b6000602082840312156200010b57600080fd5b60006200011b84828501620000e1565b91505092915050565b6000620001318262000138565b9050919050565b600073ffffffffffffffffffffffffffffffffffffffff82169050919050565b620001638162000124565b81146200016f57600080fd5b50565b61189d80620001826000396000f3fe608060405234801561001057600080fd5b50600436106100885760003560e01c80637c2a5f031161005b5780637c2a5f03146101295780637f8b5d3314610159578063856ab18914610175578063b1da5a9d146101a557610088565b806302c8af821461008d5780631adb589c146100ab578063205b9db7146100db57806329a966531461010b575b600080fd5b6100956101c1565b6040516100a29190611559565b60405180910390f35b6100c560048036038101906100c09190611121565b610345565b6040516100d291906115f8565b60405180910390f35b6100f560048036038101906100f09190611121565b6106d8565b6040516101029190611559565b60405180910390f35b6101136107fa565b604051610120919061157b565b60405180910390f35b610143600480360381019061013e9190611121565b610b47565b604051610150919061159d565b60405180910390f35b610173600480360381019061016e919061114a565b610c23565b005b61018f600480360381019061018a9190611121565b610cc7565b60405161019c919061161a565b60405180910390f35b6101bf60048036038101906101ba9190611186565b610dcf565b005b6060600060018054905067ffffffffffffffff81111561020a577f4e487b7100000000000000000000000000000000000000000000000000000000600052604160045260246000fd5b6040519080825280602002602001820160405280156102385781602001602082028036833780820191505090505b50905060005b60018054905081101561033d5760018181548110610285577f4e487b7100000000000000000000000000000000000000000000000000000000600052603260045260246000fd5b906000526020600020906004020160030160009054906101000a900473ffffffffffffffffffffffffffffffffffffffff168282815181106102f0577f4e487b7100000000000000000000000000000000000000000000000000000000600052603260045260246000fd5b602002602001019073ffffffffffffffffffffffffffffffffffffffff16908173ffffffffffffffffffffffffffffffffffffffff1681525050808061033590611781565b91505061023e565b508091505090565b61034d610fcc565b6001151561035a83610b47565b15151461039c576040517f08c379a0000000000000000000000000000000000000000000000000000000008152600401610393906115d8565b60405180910390fd5b60005b6001805490508110156106c5578273ffffffffffffffffffffffffffffffffffffffff16600182815481106103fd577f4e487b7100000000000000000000000000000000000000000000000000000000600052603260045260246000fd5b906000526020600020906004020160030160009054906101000a900473ffffffffffffffffffffffffffffffffffffffff1673ffffffffffffffffffffffffffffffffffffffff1614156106b25760018181548110610485577f4e487b7100000000000000000000000000000000000000000000000000000000600052603260045260246000fd5b90600052602060002090600402016040518060800160405290816000820180546104ae9061174f565b80601f01602080910402602001604051908101604052809291908181526020018280546104da9061174f565b80156105275780601f106104fc57610100808354040283529160200191610527565b820191906000526020600020905b81548152906001019060200180831161050a57829003601f168201915b505050505081526020016001820180546105409061174f565b80601f016020809104026020016040519081016040528092919081815260200182805461056c9061174f565b80156105b95780601f1061058e576101008083540402835291602001916105b9565b820191906000526020600020905b81548152906001019060200180831161059c57829003601f168201915b505050505081526020016002820180546105d29061174f565b80601f01602080910402602001604051908101604052809291908181526020018280546105fe9061174f565b801561064b5780601f106106205761010080835404028352916020019161064b565b820191906000526020600020905b81548152906001019060200180831161062e57829003601f168201915b505050505081526020016003820160009054906101000a900473ffffffffffffffffffffffffffffffffffffffff1673ffffffffffffffffffffffffffffffffffffffff1673ffffffffffffffffffffffffffffffffffffffff16815250509150506106d3565b80806106bd90611781565b91505061039f565b506106ce610fcc565b809150505b919050565b60606000829050600115156106ec82610b47565b15151461072e576040517f08c379a0000000000000000000000000000000000000000000000000000000008152600401610725906115d8565b60405180910390fd5b600360008473ffffffffffffffffffffffffffffffffffffffff1673ffffffffffffffffffffffffffffffffffffffff1681526020019081526020016000208054806020026020016040519081016040528092919081815260200182805480156107ed57602002820191906000526020600020905b8160009054906101000a900473ffffffffffffffffffffffffffffffffffffffff1673ffffffffffffffffffffffffffffffffffffffff16815260200190600101908083116107a3575b5050505050915050919050565b606060018054905067ffffffffffffffff811115610841577f4e487b7100000000000000000000000000000000000000000000000000000000600052604160045260246000fd5b60405190808252806020026020018201604052801561087a57816020015b610867610fcc565b81526020019060019003908161085f5790505b50905060005b600180549050811015610b4357600181815481106108c7577f4e487b7100000000000000000000000000000000000000000000000000000000600052603260045260246000fd5b90600052602060002090600402016040518060800160405290816000820180546108f09061174f565b80601f016020809104026020016040519081016040528092919081815260200182805461091c9061174f565b80156109695780601f1061093e57610100808354040283529160200191610969565b820191906000526020600020905b81548152906001019060200180831161094c57829003601f168201915b505050505081526020016001820180546109829061174f565b80601f01602080910402602001604051908101604052809291908181526020018280546109ae9061174f565b80156109fb5780601f106109d0576101008083540402835291602001916109fb565b820191906000526020600020905b8154815290600101906020018083116109de57829003601f168201915b50505050508152602001600282018054610a149061174f565b80601f0160208091040260200160405190810160405280929190818152602001828054610a409061174f565b8015610a8d5780601f10610a6257610100808354040283529160200191610a8d565b820191906000526020600020905b815481529060010190602001808311610a7057829003601f168201915b505050505081526020016003820160009054906101000a900473ffffffffffffffffffffffffffffffffffffffff1673ffffffffffffffffffffffffffffffffffffffff1673ffffffffffffffffffffffffffffffffffffffff1681525050828281518110610b25577f4e487b7100000000000000000000000000000000000000000000000000000000600052603260045260246000fd5b60200260200101819052508080610b3b90611781565b915050610880565b5090565b600080600090505b600180549050811015610c18578273ffffffffffffffffffffffffffffffffffffffff1660018281548110610bad577f4e487b7100000000000000000000000000000000000000000000000000000000600052603260045260246000fd5b906000526020600020906004020160030160009054906101000a900473ffffffffffffffffffffffffffffffffffffffff1673ffffffffffffffffffffffffffffffffffffffff161415610c05576001915050610c1e565b8080610c1090611781565b915050610b4f565b50600090505b919050565b600360008373ffffffffffffffffffffffffffffffffffffffff1673ffffffffffffffffffffffffffffffffffffffff168152602001908152602001600020819080600181540180825580915050600190039060005260206000200160009091909190916101000a81548173ffffffffffffffffffffffffffffffffffffffff021916908373ffffffffffffffffffffffffffffffffffffffff1602179055505050565b600060011515610cd683610b47565b151514610d18576040517f08c379a0000000000000000000000000000000000000000000000000000000008152600401610d0f906115b8565b60405180910390fd5b60008060009054906101000a900473ffffffffffffffffffffffffffffffffffffffff1673ffffffffffffffffffffffffffffffffffffffff16636f2d773a846040518263ffffffff1660e01b8152600401610d74919061153e565b60206040518083038186803b158015610d8c57600080fd5b505afa158015610da0573d6000803e3d6000fd5b505050506040513d601f19601f82011682018060405250810190610dc4919061123f565b905080915050919050565b610dd7610fcc565b87878080601f016020809104026020016040519081016040528093929190818152602001838380828437600081840152601f19601f82011690508083019250505050505050816000018190525085858080601f016020809104026020016040519081016040528093929190818152602001838380828437600081840152601f19601f82011690508083019250505050505050816020018190525083838080601f016020809104026020016040519081016040528093929190818152602001838380828437600081840152601f19601f82011690508083019250505050505050816040018190525081816060019073ffffffffffffffffffffffffffffffffffffffff16908173ffffffffffffffffffffffffffffffffffffffff168152505060018190806001815401808255809150506001900390600052602060002090600402016000909190919091506000820151816000019080519060200190610f3e92919061100a565b506020820151816001019080519060200190610f5b92919061100a565b506040820151816002019080519060200190610f7892919061100a565b5060608201518160030160006101000a81548173ffffffffffffffffffffffffffffffffffffffff021916908373ffffffffffffffffffffffffffffffffffffffff16021790555050505050505050505050565b6040518060800160405280606081526020016060815260200160608152602001600073ffffffffffffffffffffffffffffffffffffffff1681525090565b8280546110169061174f565b90600052602060002090601f016020900481019282611038576000855561107f565b82601f1061105157805160ff191683800117855561107f565b8280016001018555821561107f579182015b8281111561107e578251825591602001919060010190611063565b5b50905061108c9190611090565b5090565b5b808211156110a9576000816000905550600101611091565b5090565b6000813590506110bc81611839565b92915050565b60008083601f8401126110d457600080fd5b8235905067ffffffffffffffff8111156110ed57600080fd5b60208301915083600182028301111561110557600080fd5b9250929050565b60008151905061111b81611850565b92915050565b60006020828403121561113357600080fd5b6000611141848285016110ad565b91505092915050565b6000806040838503121561115d57600080fd5b600061116b858286016110ad565b925050602061117c858286016110ad565b9150509250929050565b60008060008060008060006080888a0312156111a157600080fd5b600088013567ffffffffffffffff8111156111bb57600080fd5b6111c78a828b016110c2565b9750975050602088013567ffffffffffffffff8111156111e657600080fd5b6111f28a828b016110c2565b9550955050604088013567ffffffffffffffff81111561121157600080fd5b61121d8a828b016110c2565b935093505060606112308a828b016110ad565b91505092959891949750929550565b60006020828403121561125157600080fd5b600061125f8482850161110c565b91505092915050565b60006112748383611294565b60208301905092915050565b600061128c838361144d565b905092915050565b61129d816116d4565b82525050565b6112ac816116d4565b82525050565b60006112bd82611655565b6112c78185611690565b93506112d283611635565b8060005b838110156113035781516112ea8882611268565b97506112f583611676565b9250506001810190506112d6565b5085935050505092915050565b600061131b82611660565b61132581856116a1565b93508360208202850161133785611645565b8060005b8581101561137357848403895281516113548582611280565b945061135f83611683565b925060208a0199505060018101905061133b565b50829750879550505050505092915050565b61138e816116e6565b82525050565b600061139f8261166b565b6113a981856116b2565b93506113b981856020860161171c565b6113c281611828565b840191505092915050565b60006113da601f836116c3565b91507f796f75277265206e6f7420726567697374657220617320626f72726f776572006000830152602082019050919050565b600061141a601c836116c3565b91507f796f75277265206e6f7420616c6c6f77656420746f20646f20736f2e000000006000830152602082019050919050565b6000608083016000830151848203600086015261146a8282611394565b915050602083015184820360208601526114848282611394565b9150506040830151848203604086015261149e8282611394565b91505060608301516114b36060860182611294565b508091505092915050565b600060808301600083015184820360008601526114db8282611394565b915050602083015184820360208601526114f58282611394565b9150506040830151848203604086015261150f8282611394565b91505060608301516115246060860182611294565b508091505092915050565b61153881611712565b82525050565b600060208201905061155360008301846112a3565b92915050565b6000602082019050818103600083015261157381846112b2565b905092915050565b600060208201905081810360008301526115958184611310565b905092915050565b60006020820190506115b26000830184611385565b92915050565b600060208201905081810360008301526115d1816113cd565b9050919050565b600060208201905081810360008301526115f18161140d565b9050919050565b6000602082019050818103600083015261161281846114be565b905092915050565b600060208201905061162f600083018461152f565b92915050565b6000819050602082019050919050565b6000819050602082019050919050565b600081519050919050565b600081519050919050565b600081519050919050565b6000602082019050919050565b6000602082019050919050565b600082825260208201905092915050565b600082825260208201905092915050565b600082825260208201905092915050565b600082825260208201905092915050565b60006116df826116f2565b9050919050565b60008115159050919050565b600073ffffffffffffffffffffffffffffffffffffffff82169050919050565b6000819050919050565b60005b8381101561173a57808201518184015260208101905061171f565b83811115611749576000848401525b50505050565b6000600282049050600182168061176757607f821691505b6020821081141561177b5761177a6117f9565b5b50919050565b600061178c82611712565b91507fffffffffffffffffffffffffffffffffffffffffffffffffffffffffffffffff8214156117bf576117be6117ca565b5b600182019050919050565b7f4e487b7100000000000000000000000000000000000000000000000000000000600052601160045260246000fd5b7f4e487b7100000000000000000000000000000000000000000000000000000000600052602260045260246000fd5b6000601f19601f8301169050919050565b611842816116d4565b811461184d57600080fd5b50565b61185981611712565b811461186457600080fd5b5056fea2646970667358221220125313974fbcef0a901dc907824537ca8cb0187881179c8eaf738af14985506364736f6c63430008000033",
  "immutableReferences": {},
  "source": "// SPDX-License-Identifier: MIT\r\n// solium-disable linebreak-style\r\npragma solidity >= 0.4.22 < 0.9.0;\r\nimport \"./Donator.sol\";\r\nimport \"./Borrower.sol\";\r\n\r\ncontract CharityOrg {\r\n    Donator donator;\r\n    Borrower borrower;\r\n    address charity_org_contract_addr;\r\n    address donator_contract_addr;\r\n    address borrower_contract_addr;\r\n    mapping(address => uint) donators_donations;\r\n    mapping(address => uint) borrower_donations;\r\n    constructor() {\r\n        charity_org_contract_addr = msg.sender;\r\n        donator = new Donator(address(this));\r\n        borrower = new Borrower(charity_org_contract_addr);\r\n        donator_contract_addr = address(donator);\r\n        borrower_contract_addr = address(borrower);\r\n    }\r\n\r\n    modifier is_org() {\r\n        require(charity_org_contract_addr == msg.sender, \"you're not charity org.\");\r\n        _;\r\n    }\r\n\r\n    function register_donator(string calldata _fname, string calldata _lname, string calldata _photo, address _account) public is_org {\r\n        donator.store_new_donator(_fname, _lname, _photo, _account);\r\n    }\r\n\r\n    function register_borrower(string calldata _fname, string calldata _lname, string calldata _photo, address _account) public is_org {\r\n        borrower.store_borrower(_fname, _lname, _photo, _account);\r\n    }\r\n\r\n    /* invoke from donator contract */\r\n    function receive_donations(uint _amount, address _account) public {\r\n        uint temp_amount = donators_donations[_account];\r\n        temp_amount = temp_amount + _amount;\r\n        donators_donations[_account] = temp_amount;\r\n    }\r\n\r\n    /** distribute donations */\r\n    function give_donations_borrowers(address _donator, address _borrower, uint _amount) public is_org returns(string memory) {\r\n        uint amount = donators_donations[_donator];\r\n        if(amount >= _amount) {\r\n            donators_donations[_donator] = donators_donations[_donator] - _amount;\r\n            borrower_donations[_borrower] = borrower_donations[_borrower]  + _amount;\r\n            borrower.store_donators(_borrower, _donator);\r\n            donator.store_borrowers(_donator, _borrower);\r\n            return(string(abi.encodePacked(_amount, \" Transfered\")));\r\n        }\r\n        return(string(abi.encodePacked(\"Nothing Transfered.\")));\r\n    }   \r\n\r\n    /** invoke from borrower */\r\n    function get_total_donations_by_borrower_addr(address _borrower) public view returns(uint) {\r\n        return borrower_donations[_borrower];\r\n    }\r\n\r\n    /** invoke from donator contract */\r\n    function view_donations_by_addr(address _account) public view returns(uint) {\r\n        return donators_donations[_account];\r\n    }\r\n\r\n    function get_all_donators_addresses() public view returns(address [] memory) {\r\n        return donator.get_donators_address();\r\n    }\r\n\r\n    function get_all_borrowers_adddresses() public view returns(address [] memory) {\r\n        return borrower.get_borrowers_address();\r\n    }\r\n\r\n    function get_donator_address() public view returns(address) {\r\n        return donator_contract_addr;\r\n    }\r\n\r\n    function get_borrower_address() public view returns(address) {\r\n        return borrower_contract_addr;\r\n    }\r\n\r\n\r\n}",
  "sourcePath": "E:\\3 - Al Nafi\\Blockchain\\Labs\\side_projects\\charity_dapp\\contracts\\CharityOrg.sol",
  "compiler": {
    "name": "solc",
    "version": "0.8.0+commit.c7dfd78e.Emscripten.clang"
  },
  "schemaVersion": "3.4.3",
  "updatedAt": "2021-12-22T15:42:21.456Z",
  "networkType": "ethereum",
  "devdoc": {
    "kind": "dev",
    "methods": {},
    "version": 1
  },
  "userdoc": {
    "kind": "user",
    "methods": {
      "get_total_donations_by_borrower_addr(address)": {
        "notice": "invoke from borrower "
      },
      "give_donations_borrowers(address,address,uint256)": {
        "notice": "distribute donations "
      },
      "view_donations_by_addr(address)": {
        "notice": "invoke from donator contract "
      }
    },
    "version": 1
  }
}