{
  "contractName": "Donator",
  "abi": [
    {
      "inputs": [
        {
          "internalType": "address",
          "name": "_charity_org",
          "type": "address"
        }
      ],
      "stateMutability": "nonpayable",
      "type": "constructor"
    },
    {
      "inputs": [
        {
          "internalType": "string",
          "name": "_fname",
          "type": "string"
        },
        {
          "internalType": "string",
          "name": "_lname",
          "type": "string"
        },
        {
          "internalType": "string",
          "name": "_photo",
          "type": "string"
        },
        {
          "internalType": "address",
          "name": "_account",
          "type": "address"
        }
      ],
      "name": "store_new_donator",
      "outputs": [
        {
          "internalType": "bool",
          "name": "",
          "type": "bool"
        }
      ],
      "stateMutability": "nonpayable",
      "type": "function"
    },
    {
      "inputs": [
        {
          "internalType": "address",
          "name": "_account",
          "type": "address"
        }
      ],
      "name": "view_donator_by_addr",
      "outputs": [
        {
          "components": [
            {
              "internalType": "string",
              "name": "fname",
              "type": "string"
            },
            {
              "internalType": "string",
              "name": "lname",
              "type": "string"
            },
            {
              "internalType": "string",
              "name": "photo",
              "type": "string"
            },
            {
              "internalType": "address",
              "name": "account",
              "type": "address"
            }
          ],
          "internalType": "struct Donator.donator_attr",
          "name": "",
          "type": "tuple"
        }
      ],
      "stateMutability": "view",
      "type": "function"
    },
    {
      "inputs": [],
      "name": "get_donators_address",
      "outputs": [
        {
          "internalType": "address[]",
          "name": "",
          "type": "address[]"
        }
      ],
      "stateMutability": "view",
      "type": "function"
    },
    {
      "inputs": [],
      "name": "give_donation",
      "outputs": [
        {
          "internalType": "bool",
          "name": "",
          "type": "bool"
        }
      ],
      "stateMutability": "payable",
      "type": "function"
    },
    {
      "inputs": [
        {
          "internalType": "address",
          "name": "_donator",
          "type": "address"
        },
        {
          "internalType": "address",
          "name": "_borrower",
          "type": "address"
        }
      ],
      "name": "store_borrowers",
      "outputs": [],
      "stateMutability": "nonpayable",
      "type": "function"
    },
    {
      "inputs": [
        {
          "internalType": "address",
          "name": "_account",
          "type": "address"
        }
      ],
      "name": "total_donations_you_given",
      "outputs": [
        {
          "internalType": "uint256",
          "name": "",
          "type": "uint256"
        }
      ],
      "stateMutability": "view",
      "type": "function"
    },
    {
      "inputs": [],
      "name": "get_all_donators",
      "outputs": [
        {
          "components": [
            {
              "internalType": "string",
              "name": "fname",
              "type": "string"
            },
            {
              "internalType": "string",
              "name": "lname",
              "type": "string"
            },
            {
              "internalType": "string",
              "name": "photo",
              "type": "string"
            },
            {
              "internalType": "address",
              "name": "account",
              "type": "address"
            }
          ],
          "internalType": "struct Donator.donator_attr[]",
          "name": "donators_arr",
          "type": "tuple[]"
        }
      ],
      "stateMutability": "view",
      "type": "function"
    },
    {
      "inputs": [
        {
          "internalType": "address",
          "name": "account",
          "type": "address"
        }
      ],
      "name": "list_of_borrowers_by_donator_address",
      "outputs": [
        {
          "internalType": "address[]",
          "name": "",
          "type": "address[]"
        }
      ],
      "stateMutability": "view",
      "type": "function"
    },
    {
      "inputs": [
        {
          "internalType": "address",
          "name": "_account",
          "type": "address"
        }
      ],
      "name": "is_donator",
      "outputs": [
        {
          "internalType": "bool",
          "name": "",
          "type": "bool"
        }
      ],
      "stateMutability": "view",
      "type": "function"
    }
  ],
  "bytecode": "0x60806040523480156200001157600080fd5b5060405162001d4838038062001d488339818101604052810190620000379190620000d7565b80600160006101000a81548173ffffffffffffffffffffffffffffffffffffffff021916908373ffffffffffffffffffffffffffffffffffffffff16021790555080600360006101000a81548173ffffffffffffffffffffffffffffffffffffffff021916908373ffffffffffffffffffffffffffffffffffffffff1602179055505062000151565b600081519050620000d18162000137565b92915050565b600060208284031215620000ea57600080fd5b6000620000fa84828501620000c0565b91505092915050565b6000620001108262000117565b9050919050565b600073ffffffffffffffffffffffffffffffffffffffff82169050919050565b620001428162000103565b81146200014e57600080fd5b50565b611be780620001616000396000f3fe6080604052600436106100865760003560e01c80636f8d2942116100595780636f8d29421461014c57806389f685c71461018957806392859af5146101c6578063b0f040f9146101f1578063eb2307261461022e57610086565b8063204309881461008b57806334a0de50146100a957806339bcd466146100e65780636a658b5e14610123575b600080fd5b610093610259565b6040516100a0919061187e565b60405180910390f35b3480156100b557600080fd5b506100d060048036038101906100cb9190611336565b61038e565b6040516100dd919061187e565b60405180910390f35b3480156100f257600080fd5b5061010d60048036038101906101089190611336565b61046a565b60405161011a919061193b565b60405180910390f35b34801561012f57600080fd5b5061014a6004803603810190610145919061135f565b610578565b005b34801561015857600080fd5b50610173600480360381019061016e919061139b565b61061c565b604051610180919061187e565b60405180910390f35b34801561019557600080fd5b506101b060048036038101906101ab9190611336565b6108b1565b6040516101bd919061183a565b60405180910390f35b3480156101d257600080fd5b506101db6109cd565b6040516101e8919061185c565b60405180910390f35b3480156101fd57600080fd5b5061021860048036038101906102139190611336565b610d1a565b6040516102259190611919565b60405180910390f35b34801561023a57600080fd5b5061024361105e565b604051610250919061183a565b60405180910390f35b600080341161029d576040517f08c379a0000000000000000000000000000000000000000000000000000000008152600401610294906118d9565b60405180910390fd5b60003490506000339050600115156102b48261038e565b1515146102f6576040517f08c379a00000000000000000000000000000000000000000000000000000000081526004016102ed906118f9565b60405180910390fd5b600360009054906101000a900473ffffffffffffffffffffffffffffffffffffffff1673ffffffffffffffffffffffffffffffffffffffff16638760c10d83836040518363ffffffff1660e01b8152600401610353929190611956565b600060405180830381600087803b15801561036d57600080fd5b505af1158015610381573d6000803e3d6000fd5b5050505060019250505090565b600080600090505b60008054905081101561045f578273ffffffffffffffffffffffffffffffffffffffff16600082815481106103f4577f4e487b7100000000000000000000000000000000000000000000000000000000600052603260045260246000fd5b906000526020600020906004020160030160009054906101000a900473ffffffffffffffffffffffffffffffffffffffff1673ffffffffffffffffffffffffffffffffffffffff16141561044c576001915050610465565b808061045790611acb565b915050610396565b50600090505b919050565b6000808290506001151561047d8261038e565b1515146104bf576040517f08c379a00000000000000000000000000000000000000000000000000000000081526004016104b6906118b9565b60405180910390fd5b6000600360009054906101000a900473ffffffffffffffffffffffffffffffffffffffff1673ffffffffffffffffffffffffffffffffffffffff1663d92d4965836040518263ffffffff1660e01b815260040161051c919061181f565b60206040518083038186803b15801561053457600080fd5b505afa158015610548573d6000803e3d6000fd5b505050506040513d601f19601f8201168201806040525081019061056c9190611454565b90508092505050919050565b600260008373ffffffffffffffffffffffffffffffffffffffff1673ffffffffffffffffffffffffffffffffffffffff168152602001908152602001600020819080600181540180825580915050600190039060005260206000200160009091909190916101000a81548173ffffffffffffffffffffffffffffffffffffffff021916908373ffffffffffffffffffffffffffffffffffffffff1602179055505050565b60003373ffffffffffffffffffffffffffffffffffffffff16600160009054906101000a900473ffffffffffffffffffffffffffffffffffffffff1673ffffffffffffffffffffffffffffffffffffffff16146106ae576040517f08c379a00000000000000000000000000000000000000000000000000000000081526004016106a590611899565b60405180910390fd5b6106b66111e1565b88888080601f016020809104026020016040519081016040528093929190818152602001838380828437600081840152601f19601f82011690508083019250505050505050816000018190525086868080601f016020809104026020016040519081016040528093929190818152602001838380828437600081840152601f19601f82011690508083019250505050505050816020018190525084848080601f016020809104026020016040519081016040528093929190818152602001838380828437600081840152601f19601f82011690508083019250505050505050816040018190525082816060019073ffffffffffffffffffffffffffffffffffffffff16908173ffffffffffffffffffffffffffffffffffffffff16815250506000819080600181540180825580915050600190039060005260206000209060040201600090919091909150600082015181600001908051906020019061081d92919061121f565b50602082015181600101908051906020019061083a92919061121f565b50604082015181600201908051906020019061085792919061121f565b5060608201518160030160006101000a81548173ffffffffffffffffffffffffffffffffffffffff021916908373ffffffffffffffffffffffffffffffffffffffff16021790555050506001915050979650505050505050565b6060600115156108c08361038e565b151514610902576040517f08c379a00000000000000000000000000000000000000000000000000000000081526004016108f9906118b9565b60405180910390fd5b600260008373ffffffffffffffffffffffffffffffffffffffff1673ffffffffffffffffffffffffffffffffffffffff1681526020019081526020016000208054806020026020016040519081016040528092919081815260200182805480156109c157602002820191906000526020600020905b8160009054906101000a900473ffffffffffffffffffffffffffffffffffffffff1673ffffffffffffffffffffffffffffffffffffffff1681526020019060010190808311610977575b50505050509050919050565b606060008054905067ffffffffffffffff811115610a14577f4e487b7100000000000000000000000000000000000000000000000000000000600052604160045260246000fd5b604051908082528060200260200182016040528015610a4d57816020015b610a3a6111e1565b815260200190600190039081610a325790505b50905060005b600080549050811015610d165760008181548110610a9a577f4e487b7100000000000000000000000000000000000000000000000000000000600052603260045260246000fd5b9060005260206000209060040201604051806080016040529081600082018054610ac390611a99565b80601f0160208091040260200160405190810160405280929190818152602001828054610aef90611a99565b8015610b3c5780601f10610b1157610100808354040283529160200191610b3c565b820191906000526020600020905b815481529060010190602001808311610b1f57829003601f168201915b50505050508152602001600182018054610b5590611a99565b80601f0160208091040260200160405190810160405280929190818152602001828054610b8190611a99565b8015610bce5780601f10610ba357610100808354040283529160200191610bce565b820191906000526020600020905b815481529060010190602001808311610bb157829003601f168201915b50505050508152602001600282018054610be790611a99565b80601f0160208091040260200160405190810160405280929190818152602001828054610c1390611a99565b8015610c605780601f10610c3557610100808354040283529160200191610c60565b820191906000526020600020905b815481529060010190602001808311610c4357829003601f168201915b505050505081526020016003820160009054906101000a900473ffffffffffffffffffffffffffffffffffffffff1673ffffffffffffffffffffffffffffffffffffffff1673ffffffffffffffffffffffffffffffffffffffff1681525050828281518110610cf8577f4e487b7100000000000000000000000000000000000000000000000000000000600052603260045260246000fd5b60200260200101819052508080610d0e90611acb565b915050610a53565b5090565b610d226111e1565b60005b60008054905081101561104b578273ffffffffffffffffffffffffffffffffffffffff1660008281548110610d83577f4e487b7100000000000000000000000000000000000000000000000000000000600052603260045260246000fd5b906000526020600020906004020160030160009054906101000a900473ffffffffffffffffffffffffffffffffffffffff1673ffffffffffffffffffffffffffffffffffffffff1614156110385760008181548110610e0b577f4e487b7100000000000000000000000000000000000000000000000000000000600052603260045260246000fd5b9060005260206000209060040201604051806080016040529081600082018054610e3490611a99565b80601f0160208091040260200160405190810160405280929190818152602001828054610e6090611a99565b8015610ead5780601f10610e8257610100808354040283529160200191610ead565b820191906000526020600020905b815481529060010190602001808311610e9057829003601f168201915b50505050508152602001600182018054610ec690611a99565b80601f0160208091040260200160405190810160405280929190818152602001828054610ef290611a99565b8015610f3f5780601f10610f1457610100808354040283529160200191610f3f565b820191906000526020600020905b815481529060010190602001808311610f2257829003601f168201915b50505050508152602001600282018054610f5890611a99565b80601f0160208091040260200160405190810160405280929190818152602001828054610f8490611a99565b8015610fd15780601f10610fa657610100808354040283529160200191610fd1565b820191906000526020600020905b815481529060010190602001808311610fb457829003601f168201915b505050505081526020016003820160009054906101000a900473ffffffffffffffffffffffffffffffffffffffff1673ffffffffffffffffffffffffffffffffffffffff1673ffffffffffffffffffffffffffffffffffffffff1681525050915050611059565b808061104390611acb565b915050610d25565b506110546111e1565b809150505b919050565b60606000808054905067ffffffffffffffff8111156110a6577f4e487b7100000000000000000000000000000000000000000000000000000000600052604160045260246000fd5b6040519080825280602002602001820160405280156110d45781602001602082028036833780820191505090505b50905060005b6000805490508110156111d95760008181548110611121577f4e487b7100000000000000000000000000000000000000000000000000000000600052603260045260246000fd5b906000526020600020906004020160030160009054906101000a900473ffffffffffffffffffffffffffffffffffffffff1682828151811061118c577f4e487b7100000000000000000000000000000000000000000000000000000000600052603260045260246000fd5b602002602001019073ffffffffffffffffffffffffffffffffffffffff16908173ffffffffffffffffffffffffffffffffffffffff168152505080806111d190611acb565b9150506110da565b508091505090565b6040518060800160405280606081526020016060815260200160608152602001600073ffffffffffffffffffffffffffffffffffffffff1681525090565b82805461122b90611a99565b90600052602060002090601f01602090048101928261124d5760008555611294565b82601f1061126657805160ff1916838001178555611294565b82800160010185558215611294579182015b82811115611293578251825591602001919060010190611278565b5b5090506112a191906112a5565b5090565b5b808211156112be5760008160009055506001016112a6565b5090565b6000813590506112d181611b83565b92915050565b60008083601f8401126112e957600080fd5b8235905067ffffffffffffffff81111561130257600080fd5b60208301915083600182028301111561131a57600080fd5b9250929050565b60008151905061133081611b9a565b92915050565b60006020828403121561134857600080fd5b6000611356848285016112c2565b91505092915050565b6000806040838503121561137257600080fd5b6000611380858286016112c2565b9250506020611391858286016112c2565b9150509250929050565b60008060008060008060006080888a0312156113b657600080fd5b600088013567ffffffffffffffff8111156113d057600080fd5b6113dc8a828b016112d7565b9750975050602088013567ffffffffffffffff8111156113fb57600080fd5b6114078a828b016112d7565b9550955050604088013567ffffffffffffffff81111561142657600080fd5b6114328a828b016112d7565b935093505060606114458a828b016112c2565b91505092959891949750929550565b60006020828403121561146657600080fd5b600061147484828501611321565b91505092915050565b600061148983836114a9565b60208301905092915050565b60006114a1838361172e565b905092915050565b6114b281611a1e565b82525050565b6114c181611a1e565b82525050565b60006114d28261199f565b6114dc81856119da565b93506114e78361197f565b8060005b838110156115185781516114ff888261147d565b975061150a836119c0565b9250506001810190506114eb565b5085935050505092915050565b6000611530826119aa565b61153a81856119eb565b93508360208202850161154c8561198f565b8060005b8581101561158857848403895281516115698582611495565b9450611574836119cd565b925060208a01995050600181019050611550565b50829750879550505050505092915050565b6115a381611a30565b82525050565b60006115b4826119b5565b6115be81856119fc565b93506115ce818560208601611a66565b6115d781611b72565b840191505092915050565b60006115ef602983611a0d565b91507f796f75277265206e6f7420616c6c6f77656420746f2063616c6c20746869732060008301527f66756e6374696f6e2e00000000000000000000000000000000000000000000006020830152604082019050919050565b6000611655601283611a0d565b91507f796f75277265206e6f7420616c6c6f77656400000000000000000000000000006000830152602082019050919050565b6000611695601a83611a0d565b91507f796f752063616e277420646f6e617465203020616d6f756e742e0000000000006000830152602082019050919050565b60006116d5602483611a0d565b91507f796f75277265206e6f7420616c6c6f77656420746f206769766520646f6e617460008301527f696f6e73000000000000000000000000000000000000000000000000000000006020830152604082019050919050565b6000608083016000830151848203600086015261174b82826115a9565b9150506020830151848203602086015261176582826115a9565b9150506040830151848203604086015261177f82826115a9565b915050606083015161179460608601826114a9565b508091505092915050565b600060808301600083015184820360008601526117bc82826115a9565b915050602083015184820360208601526117d682826115a9565b915050604083015184820360408601526117f082826115a9565b915050606083015161180560608601826114a9565b508091505092915050565b61181981611a5c565b82525050565b600060208201905061183460008301846114b8565b92915050565b6000602082019050818103600083015261185481846114c7565b905092915050565b600060208201905081810360008301526118768184611525565b905092915050565b6000602082019050611893600083018461159a565b92915050565b600060208201905081810360008301526118b2816115e2565b9050919050565b600060208201905081810360008301526118d281611648565b9050919050565b600060208201905081810360008301526118f281611688565b9050919050565b60006020820190508181036000830152611912816116c8565b9050919050565b60006020820190508181036000830152611933818461179f565b905092915050565b60006020820190506119506000830184611810565b92915050565b600060408201905061196b6000830185611810565b61197860208301846114b8565b9392505050565b6000819050602082019050919050565b6000819050602082019050919050565b600081519050919050565b600081519050919050565b600081519050919050565b6000602082019050919050565b6000602082019050919050565b600082825260208201905092915050565b600082825260208201905092915050565b600082825260208201905092915050565b600082825260208201905092915050565b6000611a2982611a3c565b9050919050565b60008115159050919050565b600073ffffffffffffffffffffffffffffffffffffffff82169050919050565b6000819050919050565b60005b83811015611a84578082015181840152602081019050611a69565b83811115611a93576000848401525b50505050565b60006002820490506001821680611ab157607f821691505b60208210811415611ac557611ac4611b43565b5b50919050565b6000611ad682611a5c565b91507fffffffffffffffffffffffffffffffffffffffffffffffffffffffffffffffff821415611b0957611b08611b14565b5b600182019050919050565b7f4e487b7100000000000000000000000000000000000000000000000000000000600052601160045260246000fd5b7f4e487b7100000000000000000000000000000000000000000000000000000000600052602260045260246000fd5b6000601f19601f8301169050919050565b611b8c81611a1e565b8114611b9757600080fd5b50565b611ba381611a5c565b8114611bae57600080fd5b5056fea26469706673582212205bcd98b5a7409dee012a013f34af1b445e27c22ecaa02cbfe2de3087ff2d9ba964736f6c63430008000033",
  "immutableReferences": {},
  "source": "// SPDX-License-Identifier: MIT\r\n// solium-disable linebreak-style\r\npragma solidity >= 0.4.22 < 0.9.0;\r\n\r\nimport \"./CharityOrg.sol\";\r\n\r\ncontract Donator {\r\n    struct donator_attr {\r\n        string fname;\r\n        string lname;\r\n        string photo;\r\n        address account;\r\n    }\r\n    donator_attr [] donators;\r\n    address charity_org_contract_addr;\r\n    mapping(address => address[]) borrowers_list;\r\n    CharityOrg orgObject;\r\n    \r\n    constructor(address _charity_org) {\r\n        charity_org_contract_addr = _charity_org;\r\n        orgObject = CharityOrg(_charity_org);\r\n    }\r\n\r\n    modifier is_org() {\r\n        require(charity_org_contract_addr == msg.sender, \"you're not allowed to call this function.\");\r\n        _;\r\n    }\r\n\r\n    function store_new_donator(string calldata _fname, string calldata _lname, string calldata _photo, address _account ) public is_org returns(bool) {\r\n        donator_attr memory tmp_donator;\r\n        tmp_donator.fname = _fname;\r\n        tmp_donator.lname = _lname;\r\n        tmp_donator.photo = _photo;\r\n        tmp_donator.account = _account;\r\n        donators.push(tmp_donator);\r\n        return true;\r\n    }\r\n\r\n    /** view donator by address */\r\n    function view_donator_by_addr(address _account) public view returns(donator_attr memory) {\r\n        for(uint i=0; i<donators.length; i++) {\r\n            if(donators[i].account == _account) {\r\n                return donators[i];\r\n            }\r\n        }\r\n        donator_attr memory temp;\r\n        return temp;\r\n    }\r\n\r\n    function get_donators_address() public view returns(address [] memory) {\r\n        address [] memory temp_arr = new address[](donators.length);\r\n        for(uint i=0; i<donators.length; i++) {\r\n            temp_arr[i] = donators[i].account;\r\n        }\r\n        return temp_arr;\r\n    }\r\n\r\n\r\n    function give_donation() public payable returns(bool) {\r\n        require(msg.value > 0, \"you can't donate 0 amount.\");\r\n        uint amount = msg.value;\r\n        address account = msg.sender;\r\n        require(is_donator(account) == true, \"you're not allowed to give donations\");\r\n        orgObject.receive_donations(amount, account);\r\n        return true;\r\n    }\r\n\r\n    function store_borrowers(address _donator, address _borrower) public {\r\n        borrowers_list[_donator].push(_borrower);\r\n    }\r\n\r\n    /** your donations */\r\n    function total_donations_you_given(address _account) public view returns(uint) {\r\n        address account = _account;\r\n        require(is_donator(account) == true, \"you're not allowed\");\r\n        uint amount = orgObject.view_donations_by_addr(account);\r\n        return amount;\r\n    }\r\n\r\n    function get_all_donators() public view returns(donator_attr [] memory donators_arr) {\r\n        donators_arr = new donator_attr[](donators.length);\r\n        for(uint i=0; i<donators.length; i++) {\r\n            donators_arr[i] = donators[i];\r\n        }\r\n    }\r\n\r\n    /** your borrowers */\r\n    function list_of_borrowers_by_donator_address(address account) public view returns(address[] memory) {\r\n        require(is_donator(account) == true, \"you're not allowed\");\r\n        return borrowers_list[account];\r\n    }\r\n\r\n    function is_donator(address _account) public view returns(bool) {\r\n        for(uint i=0; i<donators.length; i++) {\r\n            if(donators[i].account == _account) {\r\n                return true;\r\n            }\r\n        }\r\n        return false;\r\n    }       \r\n\r\n}",
  "sourcePath": "E:\\3 - Al Nafi\\Blockchain\\Labs\\side_projects\\charity_dapp\\contracts\\Donator.sol",
  "compiler": {
    "name": "solc",
    "version": "0.8.0+commit.c7dfd78e.Emscripten.clang"
  },
  "schemaVersion": "3.4.3",
  "updatedAt": "2021-12-22T15:42:12.288Z",
  "devdoc": {
    "kind": "dev",
    "methods": {},
    "version": 1
  },
  "userdoc": {
    "kind": "user",
    "methods": {
      "list_of_borrowers_by_donator_address(address)": {
        "notice": "your borrowers "
      },
      "total_donations_you_given(address)": {
        "notice": "your donations "
      },
      "view_donator_by_addr(address)": {
        "notice": "view donator by address "
      }
    },
    "version": 1
  }
}